{
	"data": {
		"bytecode": {
			"linkReferences": {},
			"object": "60806040526002805534801562000014575f80fd5b5060405162001d2b38038062001d2b83398181016040528101906200003a9190620000e6565b8060015f6101000a81548173ffffffffffffffffffffffffffffffffffffffff021916908373ffffffffffffffffffffffffffffffffffffffff1602179055505062000116565b5f80fd5b5f73ffffffffffffffffffffffffffffffffffffffff82169050919050565b5f620000b08262000085565b9050919050565b620000c281620000a4565b8114620000cd575f80fd5b50565b5f81519050620000e081620000b7565b92915050565b5f60208284031215620000fe57620000fd62000081565b5b5f6200010d84828501620000d0565b91505092915050565b611c0780620001245f395ff3fe608060405234801561000f575f80fd5b506004361061009b575f3560e01c80637feebc31116100645780637feebc311461012057806398ec0dff1461013e5780639aac8b591461015a578063a87430ba14610176578063efface4d146101aa5761009b565b8062442baf1461009f57806344d3d050146100be57806348b14e2e146100c857806363e8b9de146100e65780636fcbe52414610104575b5f80fd5b6100a76101c6565b6040516100b5929190611326565b60405180910390f35b6100c66103b7565b005b6100d06105e8565b6040516100dd919061136a565b60405180910390f35b6100ee6106f9565b6040516100fb91906113fd565b60405180910390f35b61011e60048036038101906101199190611451565b61071e565b005b6101286107e0565b604051610135919061136a565b60405180910390f35b610158600480360381019061015391906114b7565b6107e6565b005b610174600480360381019061016f9190611451565b610930565b005b610190600480360381019061018b91906114b7565b610a42565b6040516101a1959493929190611539565b60405180910390f35b6101c460048036038101906101bf91906116c4565b610b9e565b005b6060805f600167ffffffffffffffff8111156101e5576101e46115a0565b5b6040519080825280602002602001820160405280156102135781602001602082028036833780820191505090505b5090505f600167ffffffffffffffff811115610232576102316115a0565b5b60405190808252806020026020018201604052801561026557816020015b60608152602001906001900390816102505790505b5090505f803373ffffffffffffffffffffffffffffffffffffffff1673ffffffffffffffffffffffffffffffffffffffff1681526020019081526020015f2060020154825f815181106102bb576102ba61170b565b5b6020026020010181815250505f803373ffffffffffffffffffffffffffffffffffffffff1673ffffffffffffffffffffffffffffffffffffffff1681526020019081526020015f20600301805461031190611765565b80601f016020809104026020016040519081016040528092919081815260200182805461033d90611765565b80156103885780601f1061035f57610100808354040283529160200191610388565b820191905f5260205f20905b81548152906001019060200180831161036b57829003601f168201915b5050505050815f815181106103a05761039f61170b565b5b602002602001018190525081819350935050509091565b5f73ffffffffffffffffffffffffffffffffffffffff165f803373ffffffffffffffffffffffffffffffffffffffff1673ffffffffffffffffffffffffffffffffffffffff1681526020019081526020015f205f015f9054906101000a900473ffffffffffffffffffffffffffffffffffffffff1673ffffffffffffffffffffffffffffffffffffffff1614610482576040517f08c379a0000000000000000000000000000000000000000000000000000000008152600401610479906117df565b60405180910390fd5b61048b33610c7b565b6104ca576040517f08c379a00000000000000000000000000000000000000000000000000000000081526004016104c190611847565b60405180910390fd5b6040518060a001604052803373ffffffffffffffffffffffffffffffffffffffff16815260200160405180602001604052805f81525081526020015f815260200160405180602001604052805f81525081526020015f8152505f803373ffffffffffffffffffffffffffffffffffffffff1673ffffffffffffffffffffffffffffffffffffffff1681526020019081526020015f205f820151815f015f6101000a81548173ffffffffffffffffffffffffffffffffffffffff021916908373ffffffffffffffffffffffffffffffffffffffff16021790555060208201518160010190816105b891906119f9565b506040820151816002015560608201518160030190816105d891906119f9565b5060808201518160040155905050565b5f8073ffffffffffffffffffffffffffffffffffffffff165f803373ffffffffffffffffffffffffffffffffffffffff1673ffffffffffffffffffffffffffffffffffffffff1681526020019081526020015f205f015f9054906101000a900473ffffffffffffffffffffffffffffffffffffffff1673ffffffffffffffffffffffffffffffffffffffff16036106b4576040517f08c379a00000000000000000000000000000000000000000000000000000000081526004016106ab90611b12565b60405180910390fd5b5f803373ffffffffffffffffffffffffffffffffffffffff1673ffffffffffffffffffffffffffffffffffffffff1681526020019081526020015f2060040154905090565b60015f9054906101000a900473ffffffffffffffffffffffffffffffffffffffff1681565b805f803373ffffffffffffffffffffffffffffffffffffffff1673ffffffffffffffffffffffffffffffffffffffff1681526020019081526020015f206004015f82825461076c9190611b5d565b925050819055505f600254826107829190611b90565b90505f805f3373ffffffffffffffffffffffffffffffffffffffff1673ffffffffffffffffffffffffffffffffffffffff1681526020019081526020015f2060020154826107d09190611b5d565b90506107db81610930565b505050565b60025481565b5f73ffffffffffffffffffffffffffffffffffffffff165f803373ffffffffffffffffffffffffffffffffffffffff1673ffffffffffffffffffffffffffffffffffffffff1681526020019081526020015f205f015f9054906101000a900473ffffffffffffffffffffffffffffffffffffffff1673ffffffffffffffffffffffffffffffffffffffff16036108b1576040517f08c379a00000000000000000000000000000000000000000000000000000000081526004016108a890611b12565b60405180910390fd5b805f803373ffffffffffffffffffffffffffffffffffffffff1673ffffffffffffffffffffffffffffffffffffffff1681526020019081526020015f205f015f6101000a81548173ffffffffffffffffffffffffffffffffffffffff021916908373ffffffffffffffffffffffffffffffffffffffff16021790555050565b5f73ffffffffffffffffffffffffffffffffffffffff165f803373ffffffffffffffffffffffffffffffffffffffff1673ffffffffffffffffffffffffffffffffffffffff1681526020019081526020015f205f015f9054906101000a900473ffffffffffffffffffffffffffffffffffffffff1673ffffffffffffffffffffffffffffffffffffffff16036109fb576040517f08c379a00000000000000000000000000000000000000000000000000000000081526004016109f290611b12565b60405180910390fd5b805f803373ffffffffffffffffffffffffffffffffffffffff1673ffffffffffffffffffffffffffffffffffffffff1681526020019081526020015f206002018190555050565b5f602052805f5260405f205f91509050805f015f9054906101000a900473ffffffffffffffffffffffffffffffffffffffff1690806001018054610a8590611765565b80601f0160208091040260200160405190810160405280929190818152602001828054610ab190611765565b8015610afc5780601f10610ad357610100808354040283529160200191610afc565b820191905f5260205f20905b815481529060010190602001808311610adf57829003601f168201915b505050505090806002015490806003018054610b1790611765565b80601f0160208091040260200160405190810160405280929190818152602001828054610b4390611765565b8015610b8e5780601f10610b6557610100808354040283529160200191610b8e565b820191905f5260205f20905b815481529060010190602001808311610b7157829003601f168201915b5050505050908060040154905085565b5f805f3373ffffffffffffffffffffffffffffffffffffffff1673ffffffffffffffffffffffffffffffffffffffff1681526020019081526020015f206001018054610be990611765565b905011610c2b576040517f08c379a0000000000000000000000000000000000000000000000000000000008152600401610c2290611b12565b60405180910390fd5b805f803373ffffffffffffffffffffffffffffffffffffffff1673ffffffffffffffffffffffffffffffffffffffff1681526020019081526020015f206001019081610c7791906119f9565b5050565b5f80610c85610d02565b90505f5b8151811015610cf7578373ffffffffffffffffffffffffffffffffffffffff16828281518110610cbc57610cbb61170b565b5b602002602001015173ffffffffffffffffffffffffffffffffffffffff1603610cea57600192505050610cfd565b8080600101915050610c89565b505f9150505b919050565b60605f600a67ffffffffffffffff811115610d2057610d1f6115a0565b5b604051908082528060200260200182016040528015610d4e5781602001602082028036833780820191505090505b5090505f815f81518110610d6557610d6461170b565b5b602002602001019073ffffffffffffffffffffffffffffffffffffffff16908173ffffffffffffffffffffffffffffffffffffffff168152505073111111111111111111111111111111111111111181600181518110610dc857610dc761170b565b5b602002602001019073ffffffffffffffffffffffffffffffffffffffff16908173ffffffffffffffffffffffffffffffffffffffff168152505073222222222222222222222222222222222222222281600281518110610e2b57610e2a61170b565b5b602002602001019073ffffffffffffffffffffffffffffffffffffffff16908173ffffffffffffffffffffffffffffffffffffffff168152505073333333333333333333333333333333333333333381600381518110610e8e57610e8d61170b565b5b602002602001019073ffffffffffffffffffffffffffffffffffffffff16908173ffffffffffffffffffffffffffffffffffffffff168152505073444444444444444444444444444444444444444481600481518110610ef157610ef061170b565b5b602002602001019073ffffffffffffffffffffffffffffffffffffffff16908173ffffffffffffffffffffffffffffffffffffffff168152505073555555555555555555555555555555555555555581600581518110610f5457610f5361170b565b5b602002602001019073ffffffffffffffffffffffffffffffffffffffff16908173ffffffffffffffffffffffffffffffffffffffff168152505073666666666666666666666666666666666666666681600681518110610fb757610fb661170b565b5b602002602001019073ffffffffffffffffffffffffffffffffffffffff16908173ffffffffffffffffffffffffffffffffffffffff16815250507377777777777777777777777777777777777777778160078151811061101a5761101961170b565b5b602002602001019073ffffffffffffffffffffffffffffffffffffffff16908173ffffffffffffffffffffffffffffffffffffffff16815250507388888888888888888888888888888888888888888160088151811061107d5761107c61170b565b5b602002602001019073ffffffffffffffffffffffffffffffffffffffff16908173ffffffffffffffffffffffffffffffffffffffff1681525050739999999999999999999999999999999999999999816009815181106110e0576110df61170b565b5b602002602001019073ffffffffffffffffffffffffffffffffffffffff16908173ffffffffffffffffffffffffffffffffffffffff16815250508091505090565b5f81519050919050565b5f82825260208201905092915050565b5f819050602082019050919050565b5f819050919050565b61115c8161114a565b82525050565b5f61116d8383611153565b60208301905092915050565b5f602082019050919050565b5f61118f82611121565b611199818561112b565b93506111a48361113b565b805f5b838110156111d45781516111bb8882611162565b97506111c683611179565b9250506001810190506111a7565b5085935050505092915050565b5f81519050919050565b5f82825260208201905092915050565b5f819050602082019050919050565b5f81519050919050565b5f82825260208201905092915050565b5f5b83811015611241578082015181840152602081019050611226565b5f8484015250505050565b5f601f19601f8301169050919050565b5f6112668261120a565b6112708185611214565b9350611280818560208601611224565b6112898161124c565b840191505092915050565b5f61129f838361125c565b905092915050565b5f602082019050919050565b5f6112bd826111e1565b6112c781856111eb565b9350836020820285016112d9856111fb565b805f5b8581101561131457848403895281516112f58582611294565b9450611300836112a7565b925060208a019950506001810190506112dc565b50829750879550505050505092915050565b5f6040820190508181035f83015261133e8185611185565b9050818103602083015261135281846112b3565b90509392505050565b6113648161114a565b82525050565b5f60208201905061137d5f83018461135b565b92915050565b5f73ffffffffffffffffffffffffffffffffffffffff82169050919050565b5f819050919050565b5f6113c56113c06113bb84611383565b6113a2565b611383565b9050919050565b5f6113d6826113ab565b9050919050565b5f6113e7826113cc565b9050919050565b6113f7816113dd565b82525050565b5f6020820190506114105f8301846113ee565b92915050565b5f604051905090565b5f80fd5b5f80fd5b6114308161114a565b811461143a575f80fd5b50565b5f8135905061144b81611427565b92915050565b5f602082840312156114665761146561141f565b5b5f6114738482850161143d565b91505092915050565b5f61148682611383565b9050919050565b6114968161147c565b81146114a0575f80fd5b50565b5f813590506114b18161148d565b92915050565b5f602082840312156114cc576114cb61141f565b5b5f6114d9848285016114a3565b91505092915050565b6114eb8161147c565b82525050565b5f82825260208201905092915050565b5f61150b8261120a565b61151581856114f1565b9350611525818560208601611224565b61152e8161124c565b840191505092915050565b5f60a08201905061154c5f8301886114e2565b818103602083015261155e8187611501565b905061156d604083018661135b565b818103606083015261157f8185611501565b905061158e608083018461135b565b9695505050505050565b5f80fd5b5f80fd5b7f4e487b71000000000000000000000000000000000000000000000000000000005f52604160045260245ffd5b6115d68261124c565b810181811067ffffffffffffffff821117156115f5576115f46115a0565b5b80604052505050565b5f611607611416565b905061161382826115cd565b919050565b5f67ffffffffffffffff821115611632576116316115a0565b5b61163b8261124c565b9050602081019050919050565b828183375f83830152505050565b5f61166861166384611618565b6115fe565b9050828152602081018484840111156116845761168361159c565b5b61168f848285611648565b509392505050565b5f82601f8301126116ab576116aa611598565b5b81356116bb848260208601611656565b91505092915050565b5f602082840312156116d9576116d861141f565b5b5f82013567ffffffffffffffff8111156116f6576116f5611423565b5b61170284828501611697565b91505092915050565b7f4e487b71000000000000000000000000000000000000000000000000000000005f52603260045260245ffd5b7f4e487b71000000000000000000000000000000000000000000000000000000005f52602260045260245ffd5b5f600282049050600182168061177c57607f821691505b60208210810361178f5761178e611738565b5b50919050565b7f55736572204578697374730000000000000000000000000000000000000000005f82015250565b5f6117c9600b836114f1565b91506117d482611795565b602082019050919050565b5f6020820190508181035f8301526117f6816117bd565b9050919050565b7f496e76616c6964205573657220416464726573730000000000000000000000005f82015250565b5f6118316014836114f1565b915061183c826117fd565b602082019050919050565b5f6020820190508181035f83015261185e81611825565b9050919050565b5f819050815f5260205f209050919050565b5f6020601f8301049050919050565b5f82821b905092915050565b5f600883026118c17fffffffffffffffffffffffffffffffffffffffffffffffffffffffffffffffff82611886565b6118cb8683611886565b95508019841693508086168417925050509392505050565b5f6118fd6118f86118f38461114a565b6113a2565b61114a565b9050919050565b5f819050919050565b611916836118e3565b61192a61192282611904565b848454611892565b825550505050565b5f90565b61193e611932565b61194981848461190d565b505050565b5b8181101561196c576119615f82611936565b60018101905061194f565b5050565b601f8211156119b15761198281611865565b61198b84611877565b8101602085101561199a578190505b6119ae6119a685611877565b83018261194e565b50505b505050565b5f82821c905092915050565b5f6119d15f19846008026119b6565b1980831691505092915050565b5f6119e983836119c2565b9150826002028217905092915050565b611a028261120a565b67ffffffffffffffff811115611a1b57611a1a6115a0565b5b611a258254611765565b611a30828285611970565b5f60209050601f831160018114611a61575f8415611a4f578287015190505b611a5985826119de565b865550611ac0565b601f198416611a6f86611865565b5f5b82811015611a9657848901518255600182019150602085019450602081019050611a71565b86831015611ab35784890151611aaf601f8916826119c2565b8355505b6001600288020188555050505b505050505050565b7f5573657220446f6573204e6f742045786973742e0000000000000000000000005f82015250565b5f611afc6014836114f1565b9150611b0782611ac8565b602082019050919050565b5f6020820190508181035f830152611b2981611af0565b9050919050565b7f4e487b71000000000000000000000000000000000000000000000000000000005f52601160045260245ffd5b5f611b678261114a565b9150611b728361114a565b9250828201905080821115611b8a57611b89611b30565b5b92915050565b5f611b9a8261114a565b9150611ba58361114a565b9250828202611bb38161114a565b91508282048414831517611bca57611bc9611b30565b5b509291505056fea2646970667358221220b80c753f0ff349a9bfbfe112d308e7061f1904c94abc85c1aca3bdaa9c73479d64736f6c63430008160033",
			"opcodes": "PUSH1 0x80 PUSH1 0x40 MSTORE PUSH1 0x2 DUP1 SSTORE CALLVALUE DUP1 ISZERO PUSH3 0x14 JUMPI PUSH0 DUP1 REVERT JUMPDEST POP PUSH1 0x40 MLOAD PUSH3 0x1D2B CODESIZE SUB DUP1 PUSH3 0x1D2B DUP4 CODECOPY DUP2 DUP2 ADD PUSH1 0x40 MSTORE DUP2 ADD SWAP1 PUSH3 0x3A SWAP2 SWAP1 PUSH3 0xE6 JUMP JUMPDEST DUP1 PUSH1 0x1 PUSH0 PUSH2 0x100 EXP DUP2 SLOAD DUP2 PUSH20 0xFFFFFFFFFFFFFFFFFFFFFFFFFFFFFFFFFFFFFFFF MUL NOT AND SWAP1 DUP4 PUSH20 0xFFFFFFFFFFFFFFFFFFFFFFFFFFFFFFFFFFFFFFFF AND MUL OR SWAP1 SSTORE POP POP PUSH3 0x116 JUMP JUMPDEST PUSH0 DUP1 REVERT JUMPDEST PUSH0 PUSH20 0xFFFFFFFFFFFFFFFFFFFFFFFFFFFFFFFFFFFFFFFF DUP3 AND SWAP1 POP SWAP2 SWAP1 POP JUMP JUMPDEST PUSH0 PUSH3 0xB0 DUP3 PUSH3 0x85 JUMP JUMPDEST SWAP1 POP SWAP2 SWAP1 POP JUMP JUMPDEST PUSH3 0xC2 DUP2 PUSH3 0xA4 JUMP JUMPDEST DUP2 EQ PUSH3 0xCD JUMPI PUSH0 DUP1 REVERT JUMPDEST POP JUMP JUMPDEST PUSH0 DUP2 MLOAD SWAP1 POP PUSH3 0xE0 DUP2 PUSH3 0xB7 JUMP JUMPDEST SWAP3 SWAP2 POP POP JUMP JUMPDEST PUSH0 PUSH1 0x20 DUP3 DUP5 SUB SLT ISZERO PUSH3 0xFE JUMPI PUSH3 0xFD PUSH3 0x81 JUMP JUMPDEST JUMPDEST PUSH0 PUSH3 0x10D DUP5 DUP3 DUP6 ADD PUSH3 0xD0 JUMP JUMPDEST SWAP2 POP POP SWAP3 SWAP2 POP POP JUMP JUMPDEST PUSH2 0x1C07 DUP1 PUSH3 0x124 PUSH0 CODECOPY PUSH0 RETURN INVALID PUSH1 0x80 PUSH1 0x40 MSTORE CALLVALUE DUP1 ISZERO PUSH2 0xF JUMPI PUSH0 DUP1 REVERT JUMPDEST POP PUSH1 0x4 CALLDATASIZE LT PUSH2 0x9B JUMPI PUSH0 CALLDATALOAD PUSH1 0xE0 SHR DUP1 PUSH4 0x7FEEBC31 GT PUSH2 0x64 JUMPI DUP1 PUSH4 0x7FEEBC31 EQ PUSH2 0x120 JUMPI DUP1 PUSH4 0x98EC0DFF EQ PUSH2 0x13E JUMPI DUP1 PUSH4 0x9AAC8B59 EQ PUSH2 0x15A JUMPI DUP1 PUSH4 0xA87430BA EQ PUSH2 0x176 JUMPI DUP1 PUSH4 0xEFFACE4D EQ PUSH2 0x1AA JUMPI PUSH2 0x9B JUMP JUMPDEST DUP1 PUSH3 0x442BAF EQ PUSH2 0x9F JUMPI DUP1 PUSH4 0x44D3D050 EQ PUSH2 0xBE JUMPI DUP1 PUSH4 0x48B14E2E EQ PUSH2 0xC8 JUMPI DUP1 PUSH4 0x63E8B9DE EQ PUSH2 0xE6 JUMPI DUP1 PUSH4 0x6FCBE524 EQ PUSH2 0x104 JUMPI JUMPDEST PUSH0 DUP1 REVERT JUMPDEST PUSH2 0xA7 PUSH2 0x1C6 JUMP JUMPDEST PUSH1 0x40 MLOAD PUSH2 0xB5 SWAP3 SWAP2 SWAP1 PUSH2 0x1326 JUMP JUMPDEST PUSH1 0x40 MLOAD DUP1 SWAP2 SUB SWAP1 RETURN JUMPDEST PUSH2 0xC6 PUSH2 0x3B7 JUMP JUMPDEST STOP JUMPDEST PUSH2 0xD0 PUSH2 0x5E8 JUMP JUMPDEST PUSH1 0x40 MLOAD PUSH2 0xDD SWAP2 SWAP1 PUSH2 0x136A JUMP JUMPDEST PUSH1 0x40 MLOAD DUP1 SWAP2 SUB SWAP1 RETURN JUMPDEST PUSH2 0xEE PUSH2 0x6F9 JUMP JUMPDEST PUSH1 0x40 MLOAD PUSH2 0xFB SWAP2 SWAP1 PUSH2 0x13FD JUMP JUMPDEST PUSH1 0x40 MLOAD DUP1 SWAP2 SUB SWAP1 RETURN JUMPDEST PUSH2 0x11E PUSH1 0x4 DUP1 CALLDATASIZE SUB DUP2 ADD SWAP1 PUSH2 0x119 SWAP2 SWAP1 PUSH2 0x1451 JUMP JUMPDEST PUSH2 0x71E JUMP JUMPDEST STOP JUMPDEST PUSH2 0x128 PUSH2 0x7E0 JUMP JUMPDEST PUSH1 0x40 MLOAD PUSH2 0x135 SWAP2 SWAP1 PUSH2 0x136A JUMP JUMPDEST PUSH1 0x40 MLOAD DUP1 SWAP2 SUB SWAP1 RETURN JUMPDEST PUSH2 0x158 PUSH1 0x4 DUP1 CALLDATASIZE SUB DUP2 ADD SWAP1 PUSH2 0x153 SWAP2 SWAP1 PUSH2 0x14B7 JUMP JUMPDEST PUSH2 0x7E6 JUMP JUMPDEST STOP JUMPDEST PUSH2 0x174 PUSH1 0x4 DUP1 CALLDATASIZE SUB DUP2 ADD SWAP1 PUSH2 0x16F SWAP2 SWAP1 PUSH2 0x1451 JUMP JUMPDEST PUSH2 0x930 JUMP JUMPDEST STOP JUMPDEST PUSH2 0x190 PUSH1 0x4 DUP1 CALLDATASIZE SUB DUP2 ADD SWAP1 PUSH2 0x18B SWAP2 SWAP1 PUSH2 0x14B7 JUMP JUMPDEST PUSH2 0xA42 JUMP JUMPDEST PUSH1 0x40 MLOAD PUSH2 0x1A1 SWAP6 SWAP5 SWAP4 SWAP3 SWAP2 SWAP1 PUSH2 0x1539 JUMP JUMPDEST PUSH1 0x40 MLOAD DUP1 SWAP2 SUB SWAP1 RETURN JUMPDEST PUSH2 0x1C4 PUSH1 0x4 DUP1 CALLDATASIZE SUB DUP2 ADD SWAP1 PUSH2 0x1BF SWAP2 SWAP1 PUSH2 0x16C4 JUMP JUMPDEST PUSH2 0xB9E JUMP JUMPDEST STOP JUMPDEST PUSH1 0x60 DUP1 PUSH0 PUSH1 0x1 PUSH8 0xFFFFFFFFFFFFFFFF DUP2 GT ISZERO PUSH2 0x1E5 JUMPI PUSH2 0x1E4 PUSH2 0x15A0 JUMP JUMPDEST JUMPDEST PUSH1 0x40 MLOAD SWAP1 DUP1 DUP3 MSTORE DUP1 PUSH1 0x20 MUL PUSH1 0x20 ADD DUP3 ADD PUSH1 0x40 MSTORE DUP1 ISZERO PUSH2 0x213 JUMPI DUP2 PUSH1 0x20 ADD PUSH1 0x20 DUP3 MUL DUP1 CALLDATASIZE DUP4 CALLDATACOPY DUP1 DUP3 ADD SWAP2 POP POP SWAP1 POP JUMPDEST POP SWAP1 POP PUSH0 PUSH1 0x1 PUSH8 0xFFFFFFFFFFFFFFFF DUP2 GT ISZERO PUSH2 0x232 JUMPI PUSH2 0x231 PUSH2 0x15A0 JUMP JUMPDEST JUMPDEST PUSH1 0x40 MLOAD SWAP1 DUP1 DUP3 MSTORE DUP1 PUSH1 0x20 MUL PUSH1 0x20 ADD DUP3 ADD PUSH1 0x40 MSTORE DUP1 ISZERO PUSH2 0x265 JUMPI DUP2 PUSH1 0x20 ADD JUMPDEST PUSH1 0x60 DUP2 MSTORE PUSH1 0x20 ADD SWAP1 PUSH1 0x1 SWAP1 SUB SWAP1 DUP2 PUSH2 0x250 JUMPI SWAP1 POP JUMPDEST POP SWAP1 POP PUSH0 DUP1 CALLER PUSH20 0xFFFFFFFFFFFFFFFFFFFFFFFFFFFFFFFFFFFFFFFF AND PUSH20 0xFFFFFFFFFFFFFFFFFFFFFFFFFFFFFFFFFFFFFFFF AND DUP2 MSTORE PUSH1 0x20 ADD SWAP1 DUP2 MSTORE PUSH1 0x20 ADD PUSH0 KECCAK256 PUSH1 0x2 ADD SLOAD DUP3 PUSH0 DUP2 MLOAD DUP2 LT PUSH2 0x2BB JUMPI PUSH2 0x2BA PUSH2 0x170B JUMP JUMPDEST JUMPDEST PUSH1 0x20 MUL PUSH1 0x20 ADD ADD DUP2 DUP2 MSTORE POP POP PUSH0 DUP1 CALLER PUSH20 0xFFFFFFFFFFFFFFFFFFFFFFFFFFFFFFFFFFFFFFFF AND PUSH20 0xFFFFFFFFFFFFFFFFFFFFFFFFFFFFFFFFFFFFFFFF AND DUP2 MSTORE PUSH1 0x20 ADD SWAP1 DUP2 MSTORE PUSH1 0x20 ADD PUSH0 KECCAK256 PUSH1 0x3 ADD DUP1 SLOAD PUSH2 0x311 SWAP1 PUSH2 0x1765 JUMP JUMPDEST DUP1 PUSH1 0x1F ADD PUSH1 0x20 DUP1 SWAP2 DIV MUL PUSH1 0x20 ADD PUSH1 0x40 MLOAD SWAP1 DUP2 ADD PUSH1 0x40 MSTORE DUP1 SWAP3 SWAP2 SWAP1 DUP2 DUP2 MSTORE PUSH1 0x20 ADD DUP3 DUP1 SLOAD PUSH2 0x33D SWAP1 PUSH2 0x1765 JUMP JUMPDEST DUP1 ISZERO PUSH2 0x388 JUMPI DUP1 PUSH1 0x1F LT PUSH2 0x35F JUMPI PUSH2 0x100 DUP1 DUP4 SLOAD DIV MUL DUP4 MSTORE SWAP2 PUSH1 0x20 ADD SWAP2 PUSH2 0x388 JUMP JUMPDEST DUP3 ADD SWAP2 SWAP1 PUSH0 MSTORE PUSH1 0x20 PUSH0 KECCAK256 SWAP1 JUMPDEST DUP2 SLOAD DUP2 MSTORE SWAP1 PUSH1 0x1 ADD SWAP1 PUSH1 0x20 ADD DUP1 DUP4 GT PUSH2 0x36B JUMPI DUP3 SWAP1 SUB PUSH1 0x1F AND DUP3 ADD SWAP2 JUMPDEST POP POP POP POP POP DUP2 PUSH0 DUP2 MLOAD DUP2 LT PUSH2 0x3A0 JUMPI PUSH2 0x39F PUSH2 0x170B JUMP JUMPDEST JUMPDEST PUSH1 0x20 MUL PUSH1 0x20 ADD ADD DUP2 SWAP1 MSTORE POP DUP2 DUP2 SWAP4 POP SWAP4 POP POP POP SWAP1 SWAP2 JUMP JUMPDEST PUSH0 PUSH20 0xFFFFFFFFFFFFFFFFFFFFFFFFFFFFFFFFFFFFFFFF AND PUSH0 DUP1 CALLER PUSH20 0xFFFFFFFFFFFFFFFFFFFFFFFFFFFFFFFFFFFFFFFF AND PUSH20 0xFFFFFFFFFFFFFFFFFFFFFFFFFFFFFFFFFFFFFFFF AND DUP2 MSTORE PUSH1 0x20 ADD SWAP1 DUP2 MSTORE PUSH1 0x20 ADD PUSH0 KECCAK256 PUSH0 ADD PUSH0 SWAP1 SLOAD SWAP1 PUSH2 0x100 EXP SWAP1 DIV PUSH20 0xFFFFFFFFFFFFFFFFFFFFFFFFFFFFFFFFFFFFFFFF AND PUSH20 0xFFFFFFFFFFFFFFFFFFFFFFFFFFFFFFFFFFFFFFFF AND EQ PUSH2 0x482 JUMPI PUSH1 0x40 MLOAD PUSH32 0x8C379A000000000000000000000000000000000000000000000000000000000 DUP2 MSTORE PUSH1 0x4 ADD PUSH2 0x479 SWAP1 PUSH2 0x17DF JUMP JUMPDEST PUSH1 0x40 MLOAD DUP1 SWAP2 SUB SWAP1 REVERT JUMPDEST PUSH2 0x48B CALLER PUSH2 0xC7B JUMP JUMPDEST PUSH2 0x4CA JUMPI PUSH1 0x40 MLOAD PUSH32 0x8C379A000000000000000000000000000000000000000000000000000000000 DUP2 MSTORE PUSH1 0x4 ADD PUSH2 0x4C1 SWAP1 PUSH2 0x1847 JUMP JUMPDEST PUSH1 0x40 MLOAD DUP1 SWAP2 SUB SWAP1 REVERT JUMPDEST PUSH1 0x40 MLOAD DUP1 PUSH1 0xA0 ADD PUSH1 0x40 MSTORE DUP1 CALLER PUSH20 0xFFFFFFFFFFFFFFFFFFFFFFFFFFFFFFFFFFFFFFFF AND DUP2 MSTORE PUSH1 0x20 ADD PUSH1 0x40 MLOAD DUP1 PUSH1 0x20 ADD PUSH1 0x40 MSTORE DUP1 PUSH0 DUP2 MSTORE POP DUP2 MSTORE PUSH1 0x20 ADD PUSH0 DUP2 MSTORE PUSH1 0x20 ADD PUSH1 0x40 MLOAD DUP1 PUSH1 0x20 ADD PUSH1 0x40 MSTORE DUP1 PUSH0 DUP2 MSTORE POP DUP2 MSTORE PUSH1 0x20 ADD PUSH0 DUP2 MSTORE POP PUSH0 DUP1 CALLER PUSH20 0xFFFFFFFFFFFFFFFFFFFFFFFFFFFFFFFFFFFFFFFF AND PUSH20 0xFFFFFFFFFFFFFFFFFFFFFFFFFFFFFFFFFFFFFFFF AND DUP2 MSTORE PUSH1 0x20 ADD SWAP1 DUP2 MSTORE PUSH1 0x20 ADD PUSH0 KECCAK256 PUSH0 DUP3 ADD MLOAD DUP2 PUSH0 ADD PUSH0 PUSH2 0x100 EXP DUP2 SLOAD DUP2 PUSH20 0xFFFFFFFFFFFFFFFFFFFFFFFFFFFFFFFFFFFFFFFF MUL NOT AND SWAP1 DUP4 PUSH20 0xFFFFFFFFFFFFFFFFFFFFFFFFFFFFFFFFFFFFFFFF AND MUL OR SWAP1 SSTORE POP PUSH1 0x20 DUP3 ADD MLOAD DUP2 PUSH1 0x1 ADD SWAP1 DUP2 PUSH2 0x5B8 SWAP2 SWAP1 PUSH2 0x19F9 JUMP JUMPDEST POP PUSH1 0x40 DUP3 ADD MLOAD DUP2 PUSH1 0x2 ADD SSTORE PUSH1 0x60 DUP3 ADD MLOAD DUP2 PUSH1 0x3 ADD SWAP1 DUP2 PUSH2 0x5D8 SWAP2 SWAP1 PUSH2 0x19F9 JUMP JUMPDEST POP PUSH1 0x80 DUP3 ADD MLOAD DUP2 PUSH1 0x4 ADD SSTORE SWAP1 POP POP JUMP JUMPDEST PUSH0 DUP1 PUSH20 0xFFFFFFFFFFFFFFFFFFFFFFFFFFFFFFFFFFFFFFFF AND PUSH0 DUP1 CALLER PUSH20 0xFFFFFFFFFFFFFFFFFFFFFFFFFFFFFFFFFFFFFFFF AND PUSH20 0xFFFFFFFFFFFFFFFFFFFFFFFFFFFFFFFFFFFFFFFF AND DUP2 MSTORE PUSH1 0x20 ADD SWAP1 DUP2 MSTORE PUSH1 0x20 ADD PUSH0 KECCAK256 PUSH0 ADD PUSH0 SWAP1 SLOAD SWAP1 PUSH2 0x100 EXP SWAP1 DIV PUSH20 0xFFFFFFFFFFFFFFFFFFFFFFFFFFFFFFFFFFFFFFFF AND PUSH20 0xFFFFFFFFFFFFFFFFFFFFFFFFFFFFFFFFFFFFFFFF AND SUB PUSH2 0x6B4 JUMPI PUSH1 0x40 MLOAD PUSH32 0x8C379A000000000000000000000000000000000000000000000000000000000 DUP2 MSTORE PUSH1 0x4 ADD PUSH2 0x6AB SWAP1 PUSH2 0x1B12 JUMP JUMPDEST PUSH1 0x40 MLOAD DUP1 SWAP2 SUB SWAP1 REVERT JUMPDEST PUSH0 DUP1 CALLER PUSH20 0xFFFFFFFFFFFFFFFFFFFFFFFFFFFFFFFFFFFFFFFF AND PUSH20 0xFFFFFFFFFFFFFFFFFFFFFFFFFFFFFFFFFFFFFFFF AND DUP2 MSTORE PUSH1 0x20 ADD SWAP1 DUP2 MSTORE PUSH1 0x20 ADD PUSH0 KECCAK256 PUSH1 0x4 ADD SLOAD SWAP1 POP SWAP1 JUMP JUMPDEST PUSH1 0x1 PUSH0 SWAP1 SLOAD SWAP1 PUSH2 0x100 EXP SWAP1 DIV PUSH20 0xFFFFFFFFFFFFFFFFFFFFFFFFFFFFFFFFFFFFFFFF AND DUP2 JUMP JUMPDEST DUP1 PUSH0 DUP1 CALLER PUSH20 0xFFFFFFFFFFFFFFFFFFFFFFFFFFFFFFFFFFFFFFFF AND PUSH20 0xFFFFFFFFFFFFFFFFFFFFFFFFFFFFFFFFFFFFFFFF AND DUP2 MSTORE PUSH1 0x20 ADD SWAP1 DUP2 MSTORE PUSH1 0x20 ADD PUSH0 KECCAK256 PUSH1 0x4 ADD PUSH0 DUP3 DUP3 SLOAD PUSH2 0x76C SWAP2 SWAP1 PUSH2 0x1B5D JUMP JUMPDEST SWAP3 POP POP DUP2 SWAP1 SSTORE POP PUSH0 PUSH1 0x2 SLOAD DUP3 PUSH2 0x782 SWAP2 SWAP1 PUSH2 0x1B90 JUMP JUMPDEST SWAP1 POP PUSH0 DUP1 PUSH0 CALLER PUSH20 0xFFFFFFFFFFFFFFFFFFFFFFFFFFFFFFFFFFFFFFFF AND PUSH20 0xFFFFFFFFFFFFFFFFFFFFFFFFFFFFFFFFFFFFFFFF AND DUP2 MSTORE PUSH1 0x20 ADD SWAP1 DUP2 MSTORE PUSH1 0x20 ADD PUSH0 KECCAK256 PUSH1 0x2 ADD SLOAD DUP3 PUSH2 0x7D0 SWAP2 SWAP1 PUSH2 0x1B5D JUMP JUMPDEST SWAP1 POP PUSH2 0x7DB DUP2 PUSH2 0x930 JUMP JUMPDEST POP POP POP JUMP JUMPDEST PUSH1 0x2 SLOAD DUP2 JUMP JUMPDEST PUSH0 PUSH20 0xFFFFFFFFFFFFFFFFFFFFFFFFFFFFFFFFFFFFFFFF AND PUSH0 DUP1 CALLER PUSH20 0xFFFFFFFFFFFFFFFFFFFFFFFFFFFFFFFFFFFFFFFF AND PUSH20 0xFFFFFFFFFFFFFFFFFFFFFFFFFFFFFFFFFFFFFFFF AND DUP2 MSTORE PUSH1 0x20 ADD SWAP1 DUP2 MSTORE PUSH1 0x20 ADD PUSH0 KECCAK256 PUSH0 ADD PUSH0 SWAP1 SLOAD SWAP1 PUSH2 0x100 EXP SWAP1 DIV PUSH20 0xFFFFFFFFFFFFFFFFFFFFFFFFFFFFFFFFFFFFFFFF AND PUSH20 0xFFFFFFFFFFFFFFFFFFFFFFFFFFFFFFFFFFFFFFFF AND SUB PUSH2 0x8B1 JUMPI PUSH1 0x40 MLOAD PUSH32 0x8C379A000000000000000000000000000000000000000000000000000000000 DUP2 MSTORE PUSH1 0x4 ADD PUSH2 0x8A8 SWAP1 PUSH2 0x1B12 JUMP JUMPDEST PUSH1 0x40 MLOAD DUP1 SWAP2 SUB SWAP1 REVERT JUMPDEST DUP1 PUSH0 DUP1 CALLER PUSH20 0xFFFFFFFFFFFFFFFFFFFFFFFFFFFFFFFFFFFFFFFF AND PUSH20 0xFFFFFFFFFFFFFFFFFFFFFFFFFFFFFFFFFFFFFFFF AND DUP2 MSTORE PUSH1 0x20 ADD SWAP1 DUP2 MSTORE PUSH1 0x20 ADD PUSH0 KECCAK256 PUSH0 ADD PUSH0 PUSH2 0x100 EXP DUP2 SLOAD DUP2 PUSH20 0xFFFFFFFFFFFFFFFFFFFFFFFFFFFFFFFFFFFFFFFF MUL NOT AND SWAP1 DUP4 PUSH20 0xFFFFFFFFFFFFFFFFFFFFFFFFFFFFFFFFFFFFFFFF AND MUL OR SWAP1 SSTORE POP POP JUMP JUMPDEST PUSH0 PUSH20 0xFFFFFFFFFFFFFFFFFFFFFFFFFFFFFFFFFFFFFFFF AND PUSH0 DUP1 CALLER PUSH20 0xFFFFFFFFFFFFFFFFFFFFFFFFFFFFFFFFFFFFFFFF AND PUSH20 0xFFFFFFFFFFFFFFFFFFFFFFFFFFFFFFFFFFFFFFFF AND DUP2 MSTORE PUSH1 0x20 ADD SWAP1 DUP2 MSTORE PUSH1 0x20 ADD PUSH0 KECCAK256 PUSH0 ADD PUSH0 SWAP1 SLOAD SWAP1 PUSH2 0x100 EXP SWAP1 DIV PUSH20 0xFFFFFFFFFFFFFFFFFFFFFFFFFFFFFFFFFFFFFFFF AND PUSH20 0xFFFFFFFFFFFFFFFFFFFFFFFFFFFFFFFFFFFFFFFF AND SUB PUSH2 0x9FB JUMPI PUSH1 0x40 MLOAD PUSH32 0x8C379A000000000000000000000000000000000000000000000000000000000 DUP2 MSTORE PUSH1 0x4 ADD PUSH2 0x9F2 SWAP1 PUSH2 0x1B12 JUMP JUMPDEST PUSH1 0x40 MLOAD DUP1 SWAP2 SUB SWAP1 REVERT JUMPDEST DUP1 PUSH0 DUP1 CALLER PUSH20 0xFFFFFFFFFFFFFFFFFFFFFFFFFFFFFFFFFFFFFFFF AND PUSH20 0xFFFFFFFFFFFFFFFFFFFFFFFFFFFFFFFFFFFFFFFF AND DUP2 MSTORE PUSH1 0x20 ADD SWAP1 DUP2 MSTORE PUSH1 0x20 ADD PUSH0 KECCAK256 PUSH1 0x2 ADD DUP2 SWAP1 SSTORE POP POP JUMP JUMPDEST PUSH0 PUSH1 0x20 MSTORE DUP1 PUSH0 MSTORE PUSH1 0x40 PUSH0 KECCAK256 PUSH0 SWAP2 POP SWAP1 POP DUP1 PUSH0 ADD PUSH0 SWAP1 SLOAD SWAP1 PUSH2 0x100 EXP SWAP1 DIV PUSH20 0xFFFFFFFFFFFFFFFFFFFFFFFFFFFFFFFFFFFFFFFF AND SWAP1 DUP1 PUSH1 0x1 ADD DUP1 SLOAD PUSH2 0xA85 SWAP1 PUSH2 0x1765 JUMP JUMPDEST DUP1 PUSH1 0x1F ADD PUSH1 0x20 DUP1 SWAP2 DIV MUL PUSH1 0x20 ADD PUSH1 0x40 MLOAD SWAP1 DUP2 ADD PUSH1 0x40 MSTORE DUP1 SWAP3 SWAP2 SWAP1 DUP2 DUP2 MSTORE PUSH1 0x20 ADD DUP3 DUP1 SLOAD PUSH2 0xAB1 SWAP1 PUSH2 0x1765 JUMP JUMPDEST DUP1 ISZERO PUSH2 0xAFC JUMPI DUP1 PUSH1 0x1F LT PUSH2 0xAD3 JUMPI PUSH2 0x100 DUP1 DUP4 SLOAD DIV MUL DUP4 MSTORE SWAP2 PUSH1 0x20 ADD SWAP2 PUSH2 0xAFC JUMP JUMPDEST DUP3 ADD SWAP2 SWAP1 PUSH0 MSTORE PUSH1 0x20 PUSH0 KECCAK256 SWAP1 JUMPDEST DUP2 SLOAD DUP2 MSTORE SWAP1 PUSH1 0x1 ADD SWAP1 PUSH1 0x20 ADD DUP1 DUP4 GT PUSH2 0xADF JUMPI DUP3 SWAP1 SUB PUSH1 0x1F AND DUP3 ADD SWAP2 JUMPDEST POP POP POP POP POP SWAP1 DUP1 PUSH1 0x2 ADD SLOAD SWAP1 DUP1 PUSH1 0x3 ADD DUP1 SLOAD PUSH2 0xB17 SWAP1 PUSH2 0x1765 JUMP JUMPDEST DUP1 PUSH1 0x1F ADD PUSH1 0x20 DUP1 SWAP2 DIV MUL PUSH1 0x20 ADD PUSH1 0x40 MLOAD SWAP1 DUP2 ADD PUSH1 0x40 MSTORE DUP1 SWAP3 SWAP2 SWAP1 DUP2 DUP2 MSTORE PUSH1 0x20 ADD DUP3 DUP1 SLOAD PUSH2 0xB43 SWAP1 PUSH2 0x1765 JUMP JUMPDEST DUP1 ISZERO PUSH2 0xB8E JUMPI DUP1 PUSH1 0x1F LT PUSH2 0xB65 JUMPI PUSH2 0x100 DUP1 DUP4 SLOAD DIV MUL DUP4 MSTORE SWAP2 PUSH1 0x20 ADD SWAP2 PUSH2 0xB8E JUMP JUMPDEST DUP3 ADD SWAP2 SWAP1 PUSH0 MSTORE PUSH1 0x20 PUSH0 KECCAK256 SWAP1 JUMPDEST DUP2 SLOAD DUP2 MSTORE SWAP1 PUSH1 0x1 ADD SWAP1 PUSH1 0x20 ADD DUP1 DUP4 GT PUSH2 0xB71 JUMPI DUP3 SWAP1 SUB PUSH1 0x1F AND DUP3 ADD SWAP2 JUMPDEST POP POP POP POP POP SWAP1 DUP1 PUSH1 0x4 ADD SLOAD SWAP1 POP DUP6 JUMP JUMPDEST PUSH0 DUP1 PUSH0 CALLER PUSH20 0xFFFFFFFFFFFFFFFFFFFFFFFFFFFFFFFFFFFFFFFF AND PUSH20 0xFFFFFFFFFFFFFFFFFFFFFFFFFFFFFFFFFFFFFFFF AND DUP2 MSTORE PUSH1 0x20 ADD SWAP1 DUP2 MSTORE PUSH1 0x20 ADD PUSH0 KECCAK256 PUSH1 0x1 ADD DUP1 SLOAD PUSH2 0xBE9 SWAP1 PUSH2 0x1765 JUMP JUMPDEST SWAP1 POP GT PUSH2 0xC2B JUMPI PUSH1 0x40 MLOAD PUSH32 0x8C379A000000000000000000000000000000000000000000000000000000000 DUP2 MSTORE PUSH1 0x4 ADD PUSH2 0xC22 SWAP1 PUSH2 0x1B12 JUMP JUMPDEST PUSH1 0x40 MLOAD DUP1 SWAP2 SUB SWAP1 REVERT JUMPDEST DUP1 PUSH0 DUP1 CALLER PUSH20 0xFFFFFFFFFFFFFFFFFFFFFFFFFFFFFFFFFFFFFFFF AND PUSH20 0xFFFFFFFFFFFFFFFFFFFFFFFFFFFFFFFFFFFFFFFF AND DUP2 MSTORE PUSH1 0x20 ADD SWAP1 DUP2 MSTORE PUSH1 0x20 ADD PUSH0 KECCAK256 PUSH1 0x1 ADD SWAP1 DUP2 PUSH2 0xC77 SWAP2 SWAP1 PUSH2 0x19F9 JUMP JUMPDEST POP POP JUMP JUMPDEST PUSH0 DUP1 PUSH2 0xC85 PUSH2 0xD02 JUMP JUMPDEST SWAP1 POP PUSH0 JUMPDEST DUP2 MLOAD DUP2 LT ISZERO PUSH2 0xCF7 JUMPI DUP4 PUSH20 0xFFFFFFFFFFFFFFFFFFFFFFFFFFFFFFFFFFFFFFFF AND DUP3 DUP3 DUP2 MLOAD DUP2 LT PUSH2 0xCBC JUMPI PUSH2 0xCBB PUSH2 0x170B JUMP JUMPDEST JUMPDEST PUSH1 0x20 MUL PUSH1 0x20 ADD ADD MLOAD PUSH20 0xFFFFFFFFFFFFFFFFFFFFFFFFFFFFFFFFFFFFFFFF AND SUB PUSH2 0xCEA JUMPI PUSH1 0x1 SWAP3 POP POP POP PUSH2 0xCFD JUMP JUMPDEST DUP1 DUP1 PUSH1 0x1 ADD SWAP2 POP POP PUSH2 0xC89 JUMP JUMPDEST POP PUSH0 SWAP2 POP POP JUMPDEST SWAP2 SWAP1 POP JUMP JUMPDEST PUSH1 0x60 PUSH0 PUSH1 0xA PUSH8 0xFFFFFFFFFFFFFFFF DUP2 GT ISZERO PUSH2 0xD20 JUMPI PUSH2 0xD1F PUSH2 0x15A0 JUMP JUMPDEST JUMPDEST PUSH1 0x40 MLOAD SWAP1 DUP1 DUP3 MSTORE DUP1 PUSH1 0x20 MUL PUSH1 0x20 ADD DUP3 ADD PUSH1 0x40 MSTORE DUP1 ISZERO PUSH2 0xD4E JUMPI DUP2 PUSH1 0x20 ADD PUSH1 0x20 DUP3 MUL DUP1 CALLDATASIZE DUP4 CALLDATACOPY DUP1 DUP3 ADD SWAP2 POP POP SWAP1 POP JUMPDEST POP SWAP1 POP PUSH0 DUP2 PUSH0 DUP2 MLOAD DUP2 LT PUSH2 0xD65 JUMPI PUSH2 0xD64 PUSH2 0x170B JUMP JUMPDEST JUMPDEST PUSH1 0x20 MUL PUSH1 0x20 ADD ADD SWAP1 PUSH20 0xFFFFFFFFFFFFFFFFFFFFFFFFFFFFFFFFFFFFFFFF AND SWAP1 DUP2 PUSH20 0xFFFFFFFFFFFFFFFFFFFFFFFFFFFFFFFFFFFFFFFF AND DUP2 MSTORE POP POP PUSH20 0x1111111111111111111111111111111111111111 DUP2 PUSH1 0x1 DUP2 MLOAD DUP2 LT PUSH2 0xDC8 JUMPI PUSH2 0xDC7 PUSH2 0x170B JUMP JUMPDEST JUMPDEST PUSH1 0x20 MUL PUSH1 0x20 ADD ADD SWAP1 PUSH20 0xFFFFFFFFFFFFFFFFFFFFFFFFFFFFFFFFFFFFFFFF AND SWAP1 DUP2 PUSH20 0xFFFFFFFFFFFFFFFFFFFFFFFFFFFFFFFFFFFFFFFF AND DUP2 MSTORE POP POP PUSH20 0x2222222222222222222222222222222222222222 DUP2 PUSH1 0x2 DUP2 MLOAD DUP2 LT PUSH2 0xE2B JUMPI PUSH2 0xE2A PUSH2 0x170B JUMP JUMPDEST JUMPDEST PUSH1 0x20 MUL PUSH1 0x20 ADD ADD SWAP1 PUSH20 0xFFFFFFFFFFFFFFFFFFFFFFFFFFFFFFFFFFFFFFFF AND SWAP1 DUP2 PUSH20 0xFFFFFFFFFFFFFFFFFFFFFFFFFFFFFFFFFFFFFFFF AND DUP2 MSTORE POP POP PUSH20 0x3333333333333333333333333333333333333333 DUP2 PUSH1 0x3 DUP2 MLOAD DUP2 LT PUSH2 0xE8E JUMPI PUSH2 0xE8D PUSH2 0x170B JUMP JUMPDEST JUMPDEST PUSH1 0x20 MUL PUSH1 0x20 ADD ADD SWAP1 PUSH20 0xFFFFFFFFFFFFFFFFFFFFFFFFFFFFFFFFFFFFFFFF AND SWAP1 DUP2 PUSH20 0xFFFFFFFFFFFFFFFFFFFFFFFFFFFFFFFFFFFFFFFF AND DUP2 MSTORE POP POP PUSH20 0x4444444444444444444444444444444444444444 DUP2 PUSH1 0x4 DUP2 MLOAD DUP2 LT PUSH2 0xEF1 JUMPI PUSH2 0xEF0 PUSH2 0x170B JUMP JUMPDEST JUMPDEST PUSH1 0x20 MUL PUSH1 0x20 ADD ADD SWAP1 PUSH20 0xFFFFFFFFFFFFFFFFFFFFFFFFFFFFFFFFFFFFFFFF AND SWAP1 DUP2 PUSH20 0xFFFFFFFFFFFFFFFFFFFFFFFFFFFFFFFFFFFFFFFF AND DUP2 MSTORE POP POP PUSH20 0x5555555555555555555555555555555555555555 DUP2 PUSH1 0x5 DUP2 MLOAD DUP2 LT PUSH2 0xF54 JUMPI PUSH2 0xF53 PUSH2 0x170B JUMP JUMPDEST JUMPDEST PUSH1 0x20 MUL PUSH1 0x20 ADD ADD SWAP1 PUSH20 0xFFFFFFFFFFFFFFFFFFFFFFFFFFFFFFFFFFFFFFFF AND SWAP1 DUP2 PUSH20 0xFFFFFFFFFFFFFFFFFFFFFFFFFFFFFFFFFFFFFFFF AND DUP2 MSTORE POP POP PUSH20 0x6666666666666666666666666666666666666666 DUP2 PUSH1 0x6 DUP2 MLOAD DUP2 LT PUSH2 0xFB7 JUMPI PUSH2 0xFB6 PUSH2 0x170B JUMP JUMPDEST JUMPDEST PUSH1 0x20 MUL PUSH1 0x20 ADD ADD SWAP1 PUSH20 0xFFFFFFFFFFFFFFFFFFFFFFFFFFFFFFFFFFFFFFFF AND SWAP1 DUP2 PUSH20 0xFFFFFFFFFFFFFFFFFFFFFFFFFFFFFFFFFFFFFFFF AND DUP2 MSTORE POP POP PUSH20 0x7777777777777777777777777777777777777777 DUP2 PUSH1 0x7 DUP2 MLOAD DUP2 LT PUSH2 0x101A JUMPI PUSH2 0x1019 PUSH2 0x170B JUMP JUMPDEST JUMPDEST PUSH1 0x20 MUL PUSH1 0x20 ADD ADD SWAP1 PUSH20 0xFFFFFFFFFFFFFFFFFFFFFFFFFFFFFFFFFFFFFFFF AND SWAP1 DUP2 PUSH20 0xFFFFFFFFFFFFFFFFFFFFFFFFFFFFFFFFFFFFFFFF AND DUP2 MSTORE POP POP PUSH20 0x8888888888888888888888888888888888888888 DUP2 PUSH1 0x8 DUP2 MLOAD DUP2 LT PUSH2 0x107D JUMPI PUSH2 0x107C PUSH2 0x170B JUMP JUMPDEST JUMPDEST PUSH1 0x20 MUL PUSH1 0x20 ADD ADD SWAP1 PUSH20 0xFFFFFFFFFFFFFFFFFFFFFFFFFFFFFFFFFFFFFFFF AND SWAP1 DUP2 PUSH20 0xFFFFFFFFFFFFFFFFFFFFFFFFFFFFFFFFFFFFFFFF AND DUP2 MSTORE POP POP PUSH20 0x9999999999999999999999999999999999999999 DUP2 PUSH1 0x9 DUP2 MLOAD DUP2 LT PUSH2 0x10E0 JUMPI PUSH2 0x10DF PUSH2 0x170B JUMP JUMPDEST JUMPDEST PUSH1 0x20 MUL PUSH1 0x20 ADD ADD SWAP1 PUSH20 0xFFFFFFFFFFFFFFFFFFFFFFFFFFFFFFFFFFFFFFFF AND SWAP1 DUP2 PUSH20 0xFFFFFFFFFFFFFFFFFFFFFFFFFFFFFFFFFFFFFFFF AND DUP2 MSTORE POP POP DUP1 SWAP2 POP POP SWAP1 JUMP JUMPDEST PUSH0 DUP2 MLOAD SWAP1 POP SWAP2 SWAP1 POP JUMP JUMPDEST PUSH0 DUP3 DUP3 MSTORE PUSH1 0x20 DUP3 ADD SWAP1 POP SWAP3 SWAP2 POP POP JUMP JUMPDEST PUSH0 DUP2 SWAP1 POP PUSH1 0x20 DUP3 ADD SWAP1 POP SWAP2 SWAP1 POP JUMP JUMPDEST PUSH0 DUP2 SWAP1 POP SWAP2 SWAP1 POP JUMP JUMPDEST PUSH2 0x115C DUP2 PUSH2 0x114A JUMP JUMPDEST DUP3 MSTORE POP POP JUMP JUMPDEST PUSH0 PUSH2 0x116D DUP4 DUP4 PUSH2 0x1153 JUMP JUMPDEST PUSH1 0x20 DUP4 ADD SWAP1 POP SWAP3 SWAP2 POP POP JUMP JUMPDEST PUSH0 PUSH1 0x20 DUP3 ADD SWAP1 POP SWAP2 SWAP1 POP JUMP JUMPDEST PUSH0 PUSH2 0x118F DUP3 PUSH2 0x1121 JUMP JUMPDEST PUSH2 0x1199 DUP2 DUP6 PUSH2 0x112B JUMP JUMPDEST SWAP4 POP PUSH2 0x11A4 DUP4 PUSH2 0x113B JUMP JUMPDEST DUP1 PUSH0 JUMPDEST DUP4 DUP2 LT ISZERO PUSH2 0x11D4 JUMPI DUP2 MLOAD PUSH2 0x11BB DUP9 DUP3 PUSH2 0x1162 JUMP JUMPDEST SWAP8 POP PUSH2 0x11C6 DUP4 PUSH2 0x1179 JUMP JUMPDEST SWAP3 POP POP PUSH1 0x1 DUP2 ADD SWAP1 POP PUSH2 0x11A7 JUMP JUMPDEST POP DUP6 SWAP4 POP POP POP POP SWAP3 SWAP2 POP POP JUMP JUMPDEST PUSH0 DUP2 MLOAD SWAP1 POP SWAP2 SWAP1 POP JUMP JUMPDEST PUSH0 DUP3 DUP3 MSTORE PUSH1 0x20 DUP3 ADD SWAP1 POP SWAP3 SWAP2 POP POP JUMP JUMPDEST PUSH0 DUP2 SWAP1 POP PUSH1 0x20 DUP3 ADD SWAP1 POP SWAP2 SWAP1 POP JUMP JUMPDEST PUSH0 DUP2 MLOAD SWAP1 POP SWAP2 SWAP1 POP JUMP JUMPDEST PUSH0 DUP3 DUP3 MSTORE PUSH1 0x20 DUP3 ADD SWAP1 POP SWAP3 SWAP2 POP POP JUMP JUMPDEST PUSH0 JUMPDEST DUP4 DUP2 LT ISZERO PUSH2 0x1241 JUMPI DUP1 DUP3 ADD MLOAD DUP2 DUP5 ADD MSTORE PUSH1 0x20 DUP2 ADD SWAP1 POP PUSH2 0x1226 JUMP JUMPDEST PUSH0 DUP5 DUP5 ADD MSTORE POP POP POP POP JUMP JUMPDEST PUSH0 PUSH1 0x1F NOT PUSH1 0x1F DUP4 ADD AND SWAP1 POP SWAP2 SWAP1 POP JUMP JUMPDEST PUSH0 PUSH2 0x1266 DUP3 PUSH2 0x120A JUMP JUMPDEST PUSH2 0x1270 DUP2 DUP6 PUSH2 0x1214 JUMP JUMPDEST SWAP4 POP PUSH2 0x1280 DUP2 DUP6 PUSH1 0x20 DUP7 ADD PUSH2 0x1224 JUMP JUMPDEST PUSH2 0x1289 DUP2 PUSH2 0x124C JUMP JUMPDEST DUP5 ADD SWAP2 POP POP SWAP3 SWAP2 POP POP JUMP JUMPDEST PUSH0 PUSH2 0x129F DUP4 DUP4 PUSH2 0x125C JUMP JUMPDEST SWAP1 POP SWAP3 SWAP2 POP POP JUMP JUMPDEST PUSH0 PUSH1 0x20 DUP3 ADD SWAP1 POP SWAP2 SWAP1 POP JUMP JUMPDEST PUSH0 PUSH2 0x12BD DUP3 PUSH2 0x11E1 JUMP JUMPDEST PUSH2 0x12C7 DUP2 DUP6 PUSH2 0x11EB JUMP JUMPDEST SWAP4 POP DUP4 PUSH1 0x20 DUP3 MUL DUP6 ADD PUSH2 0x12D9 DUP6 PUSH2 0x11FB JUMP JUMPDEST DUP1 PUSH0 JUMPDEST DUP6 DUP2 LT ISZERO PUSH2 0x1314 JUMPI DUP5 DUP5 SUB DUP10 MSTORE DUP2 MLOAD PUSH2 0x12F5 DUP6 DUP3 PUSH2 0x1294 JUMP JUMPDEST SWAP5 POP PUSH2 0x1300 DUP4 PUSH2 0x12A7 JUMP JUMPDEST SWAP3 POP PUSH1 0x20 DUP11 ADD SWAP10 POP POP PUSH1 0x1 DUP2 ADD SWAP1 POP PUSH2 0x12DC JUMP JUMPDEST POP DUP3 SWAP8 POP DUP8 SWAP6 POP POP POP POP POP POP SWAP3 SWAP2 POP POP JUMP JUMPDEST PUSH0 PUSH1 0x40 DUP3 ADD SWAP1 POP DUP2 DUP2 SUB PUSH0 DUP4 ADD MSTORE PUSH2 0x133E DUP2 DUP6 PUSH2 0x1185 JUMP JUMPDEST SWAP1 POP DUP2 DUP2 SUB PUSH1 0x20 DUP4 ADD MSTORE PUSH2 0x1352 DUP2 DUP5 PUSH2 0x12B3 JUMP JUMPDEST SWAP1 POP SWAP4 SWAP3 POP POP POP JUMP JUMPDEST PUSH2 0x1364 DUP2 PUSH2 0x114A JUMP JUMPDEST DUP3 MSTORE POP POP JUMP JUMPDEST PUSH0 PUSH1 0x20 DUP3 ADD SWAP1 POP PUSH2 0x137D PUSH0 DUP4 ADD DUP5 PUSH2 0x135B JUMP JUMPDEST SWAP3 SWAP2 POP POP JUMP JUMPDEST PUSH0 PUSH20 0xFFFFFFFFFFFFFFFFFFFFFFFFFFFFFFFFFFFFFFFF DUP3 AND SWAP1 POP SWAP2 SWAP1 POP JUMP JUMPDEST PUSH0 DUP2 SWAP1 POP SWAP2 SWAP1 POP JUMP JUMPDEST PUSH0 PUSH2 0x13C5 PUSH2 0x13C0 PUSH2 0x13BB DUP5 PUSH2 0x1383 JUMP JUMPDEST PUSH2 0x13A2 JUMP JUMPDEST PUSH2 0x1383 JUMP JUMPDEST SWAP1 POP SWAP2 SWAP1 POP JUMP JUMPDEST PUSH0 PUSH2 0x13D6 DUP3 PUSH2 0x13AB JUMP JUMPDEST SWAP1 POP SWAP2 SWAP1 POP JUMP JUMPDEST PUSH0 PUSH2 0x13E7 DUP3 PUSH2 0x13CC JUMP JUMPDEST SWAP1 POP SWAP2 SWAP1 POP JUMP JUMPDEST PUSH2 0x13F7 DUP2 PUSH2 0x13DD JUMP JUMPDEST DUP3 MSTORE POP POP JUMP JUMPDEST PUSH0 PUSH1 0x20 DUP3 ADD SWAP1 POP PUSH2 0x1410 PUSH0 DUP4 ADD DUP5 PUSH2 0x13EE JUMP JUMPDEST SWAP3 SWAP2 POP POP JUMP JUMPDEST PUSH0 PUSH1 0x40 MLOAD SWAP1 POP SWAP1 JUMP JUMPDEST PUSH0 DUP1 REVERT JUMPDEST PUSH0 DUP1 REVERT JUMPDEST PUSH2 0x1430 DUP2 PUSH2 0x114A JUMP JUMPDEST DUP2 EQ PUSH2 0x143A JUMPI PUSH0 DUP1 REVERT JUMPDEST POP JUMP JUMPDEST PUSH0 DUP2 CALLDATALOAD SWAP1 POP PUSH2 0x144B DUP2 PUSH2 0x1427 JUMP JUMPDEST SWAP3 SWAP2 POP POP JUMP JUMPDEST PUSH0 PUSH1 0x20 DUP3 DUP5 SUB SLT ISZERO PUSH2 0x1466 JUMPI PUSH2 0x1465 PUSH2 0x141F JUMP JUMPDEST JUMPDEST PUSH0 PUSH2 0x1473 DUP5 DUP3 DUP6 ADD PUSH2 0x143D JUMP JUMPDEST SWAP2 POP POP SWAP3 SWAP2 POP POP JUMP JUMPDEST PUSH0 PUSH2 0x1486 DUP3 PUSH2 0x1383 JUMP JUMPDEST SWAP1 POP SWAP2 SWAP1 POP JUMP JUMPDEST PUSH2 0x1496 DUP2 PUSH2 0x147C JUMP JUMPDEST DUP2 EQ PUSH2 0x14A0 JUMPI PUSH0 DUP1 REVERT JUMPDEST POP JUMP JUMPDEST PUSH0 DUP2 CALLDATALOAD SWAP1 POP PUSH2 0x14B1 DUP2 PUSH2 0x148D JUMP JUMPDEST SWAP3 SWAP2 POP POP JUMP JUMPDEST PUSH0 PUSH1 0x20 DUP3 DUP5 SUB SLT ISZERO PUSH2 0x14CC JUMPI PUSH2 0x14CB PUSH2 0x141F JUMP JUMPDEST JUMPDEST PUSH0 PUSH2 0x14D9 DUP5 DUP3 DUP6 ADD PUSH2 0x14A3 JUMP JUMPDEST SWAP2 POP POP SWAP3 SWAP2 POP POP JUMP JUMPDEST PUSH2 0x14EB DUP2 PUSH2 0x147C JUMP JUMPDEST DUP3 MSTORE POP POP JUMP JUMPDEST PUSH0 DUP3 DUP3 MSTORE PUSH1 0x20 DUP3 ADD SWAP1 POP SWAP3 SWAP2 POP POP JUMP JUMPDEST PUSH0 PUSH2 0x150B DUP3 PUSH2 0x120A JUMP JUMPDEST PUSH2 0x1515 DUP2 DUP6 PUSH2 0x14F1 JUMP JUMPDEST SWAP4 POP PUSH2 0x1525 DUP2 DUP6 PUSH1 0x20 DUP7 ADD PUSH2 0x1224 JUMP JUMPDEST PUSH2 0x152E DUP2 PUSH2 0x124C JUMP JUMPDEST DUP5 ADD SWAP2 POP POP SWAP3 SWAP2 POP POP JUMP JUMPDEST PUSH0 PUSH1 0xA0 DUP3 ADD SWAP1 POP PUSH2 0x154C PUSH0 DUP4 ADD DUP9 PUSH2 0x14E2 JUMP JUMPDEST DUP2 DUP2 SUB PUSH1 0x20 DUP4 ADD MSTORE PUSH2 0x155E DUP2 DUP8 PUSH2 0x1501 JUMP JUMPDEST SWAP1 POP PUSH2 0x156D PUSH1 0x40 DUP4 ADD DUP7 PUSH2 0x135B JUMP JUMPDEST DUP2 DUP2 SUB PUSH1 0x60 DUP4 ADD MSTORE PUSH2 0x157F DUP2 DUP6 PUSH2 0x1501 JUMP JUMPDEST SWAP1 POP PUSH2 0x158E PUSH1 0x80 DUP4 ADD DUP5 PUSH2 0x135B JUMP JUMPDEST SWAP7 SWAP6 POP POP POP POP POP POP JUMP JUMPDEST PUSH0 DUP1 REVERT JUMPDEST PUSH0 DUP1 REVERT JUMPDEST PUSH32 0x4E487B7100000000000000000000000000000000000000000000000000000000 PUSH0 MSTORE PUSH1 0x41 PUSH1 0x4 MSTORE PUSH1 0x24 PUSH0 REVERT JUMPDEST PUSH2 0x15D6 DUP3 PUSH2 0x124C JUMP JUMPDEST DUP2 ADD DUP2 DUP2 LT PUSH8 0xFFFFFFFFFFFFFFFF DUP3 GT OR ISZERO PUSH2 0x15F5 JUMPI PUSH2 0x15F4 PUSH2 0x15A0 JUMP JUMPDEST JUMPDEST DUP1 PUSH1 0x40 MSTORE POP POP POP JUMP JUMPDEST PUSH0 PUSH2 0x1607 PUSH2 0x1416 JUMP JUMPDEST SWAP1 POP PUSH2 0x1613 DUP3 DUP3 PUSH2 0x15CD JUMP JUMPDEST SWAP2 SWAP1 POP JUMP JUMPDEST PUSH0 PUSH8 0xFFFFFFFFFFFFFFFF DUP3 GT ISZERO PUSH2 0x1632 JUMPI PUSH2 0x1631 PUSH2 0x15A0 JUMP JUMPDEST JUMPDEST PUSH2 0x163B DUP3 PUSH2 0x124C JUMP JUMPDEST SWAP1 POP PUSH1 0x20 DUP2 ADD SWAP1 POP SWAP2 SWAP1 POP JUMP JUMPDEST DUP3 DUP2 DUP4 CALLDATACOPY PUSH0 DUP4 DUP4 ADD MSTORE POP POP POP JUMP JUMPDEST PUSH0 PUSH2 0x1668 PUSH2 0x1663 DUP5 PUSH2 0x1618 JUMP JUMPDEST PUSH2 0x15FE JUMP JUMPDEST SWAP1 POP DUP3 DUP2 MSTORE PUSH1 0x20 DUP2 ADD DUP5 DUP5 DUP5 ADD GT ISZERO PUSH2 0x1684 JUMPI PUSH2 0x1683 PUSH2 0x159C JUMP JUMPDEST JUMPDEST PUSH2 0x168F DUP5 DUP3 DUP6 PUSH2 0x1648 JUMP JUMPDEST POP SWAP4 SWAP3 POP POP POP JUMP JUMPDEST PUSH0 DUP3 PUSH1 0x1F DUP4 ADD SLT PUSH2 0x16AB JUMPI PUSH2 0x16AA PUSH2 0x1598 JUMP JUMPDEST JUMPDEST DUP2 CALLDATALOAD PUSH2 0x16BB DUP5 DUP3 PUSH1 0x20 DUP7 ADD PUSH2 0x1656 JUMP JUMPDEST SWAP2 POP POP SWAP3 SWAP2 POP POP JUMP JUMPDEST PUSH0 PUSH1 0x20 DUP3 DUP5 SUB SLT ISZERO PUSH2 0x16D9 JUMPI PUSH2 0x16D8 PUSH2 0x141F JUMP JUMPDEST JUMPDEST PUSH0 DUP3 ADD CALLDATALOAD PUSH8 0xFFFFFFFFFFFFFFFF DUP2 GT ISZERO PUSH2 0x16F6 JUMPI PUSH2 0x16F5 PUSH2 0x1423 JUMP JUMPDEST JUMPDEST PUSH2 0x1702 DUP5 DUP3 DUP6 ADD PUSH2 0x1697 JUMP JUMPDEST SWAP2 POP POP SWAP3 SWAP2 POP POP JUMP JUMPDEST PUSH32 0x4E487B7100000000000000000000000000000000000000000000000000000000 PUSH0 MSTORE PUSH1 0x32 PUSH1 0x4 MSTORE PUSH1 0x24 PUSH0 REVERT JUMPDEST PUSH32 0x4E487B7100000000000000000000000000000000000000000000000000000000 PUSH0 MSTORE PUSH1 0x22 PUSH1 0x4 MSTORE PUSH1 0x24 PUSH0 REVERT JUMPDEST PUSH0 PUSH1 0x2 DUP3 DIV SWAP1 POP PUSH1 0x1 DUP3 AND DUP1 PUSH2 0x177C JUMPI PUSH1 0x7F DUP3 AND SWAP2 POP JUMPDEST PUSH1 0x20 DUP3 LT DUP2 SUB PUSH2 0x178F JUMPI PUSH2 0x178E PUSH2 0x1738 JUMP JUMPDEST JUMPDEST POP SWAP2 SWAP1 POP JUMP JUMPDEST PUSH32 0x5573657220457869737473000000000000000000000000000000000000000000 PUSH0 DUP3 ADD MSTORE POP JUMP JUMPDEST PUSH0 PUSH2 0x17C9 PUSH1 0xB DUP4 PUSH2 0x14F1 JUMP JUMPDEST SWAP2 POP PUSH2 0x17D4 DUP3 PUSH2 0x1795 JUMP JUMPDEST PUSH1 0x20 DUP3 ADD SWAP1 POP SWAP2 SWAP1 POP JUMP JUMPDEST PUSH0 PUSH1 0x20 DUP3 ADD SWAP1 POP DUP2 DUP2 SUB PUSH0 DUP4 ADD MSTORE PUSH2 0x17F6 DUP2 PUSH2 0x17BD JUMP JUMPDEST SWAP1 POP SWAP2 SWAP1 POP JUMP JUMPDEST PUSH32 0x496E76616C696420557365722041646472657373000000000000000000000000 PUSH0 DUP3 ADD MSTORE POP JUMP JUMPDEST PUSH0 PUSH2 0x1831 PUSH1 0x14 DUP4 PUSH2 0x14F1 JUMP JUMPDEST SWAP2 POP PUSH2 0x183C DUP3 PUSH2 0x17FD JUMP JUMPDEST PUSH1 0x20 DUP3 ADD SWAP1 POP SWAP2 SWAP1 POP JUMP JUMPDEST PUSH0 PUSH1 0x20 DUP3 ADD SWAP1 POP DUP2 DUP2 SUB PUSH0 DUP4 ADD MSTORE PUSH2 0x185E DUP2 PUSH2 0x1825 JUMP JUMPDEST SWAP1 POP SWAP2 SWAP1 POP JUMP JUMPDEST PUSH0 DUP2 SWAP1 POP DUP2 PUSH0 MSTORE PUSH1 0x20 PUSH0 KECCAK256 SWAP1 POP SWAP2 SWAP1 POP JUMP JUMPDEST PUSH0 PUSH1 0x20 PUSH1 0x1F DUP4 ADD DIV SWAP1 POP SWAP2 SWAP1 POP JUMP JUMPDEST PUSH0 DUP3 DUP3 SHL SWAP1 POP SWAP3 SWAP2 POP POP JUMP JUMPDEST PUSH0 PUSH1 0x8 DUP4 MUL PUSH2 0x18C1 PUSH32 0xFFFFFFFFFFFFFFFFFFFFFFFFFFFFFFFFFFFFFFFFFFFFFFFFFFFFFFFFFFFFFFFF DUP3 PUSH2 0x1886 JUMP JUMPDEST PUSH2 0x18CB DUP7 DUP4 PUSH2 0x1886 JUMP JUMPDEST SWAP6 POP DUP1 NOT DUP5 AND SWAP4 POP DUP1 DUP7 AND DUP5 OR SWAP3 POP POP POP SWAP4 SWAP3 POP POP POP JUMP JUMPDEST PUSH0 PUSH2 0x18FD PUSH2 0x18F8 PUSH2 0x18F3 DUP5 PUSH2 0x114A JUMP JUMPDEST PUSH2 0x13A2 JUMP JUMPDEST PUSH2 0x114A JUMP JUMPDEST SWAP1 POP SWAP2 SWAP1 POP JUMP JUMPDEST PUSH0 DUP2 SWAP1 POP SWAP2 SWAP1 POP JUMP JUMPDEST PUSH2 0x1916 DUP4 PUSH2 0x18E3 JUMP JUMPDEST PUSH2 0x192A PUSH2 0x1922 DUP3 PUSH2 0x1904 JUMP JUMPDEST DUP5 DUP5 SLOAD PUSH2 0x1892 JUMP JUMPDEST DUP3 SSTORE POP POP POP POP JUMP JUMPDEST PUSH0 SWAP1 JUMP JUMPDEST PUSH2 0x193E PUSH2 0x1932 JUMP JUMPDEST PUSH2 0x1949 DUP2 DUP5 DUP5 PUSH2 0x190D JUMP JUMPDEST POP POP POP JUMP JUMPDEST JUMPDEST DUP2 DUP2 LT ISZERO PUSH2 0x196C JUMPI PUSH2 0x1961 PUSH0 DUP3 PUSH2 0x1936 JUMP JUMPDEST PUSH1 0x1 DUP2 ADD SWAP1 POP PUSH2 0x194F JUMP JUMPDEST POP POP JUMP JUMPDEST PUSH1 0x1F DUP3 GT ISZERO PUSH2 0x19B1 JUMPI PUSH2 0x1982 DUP2 PUSH2 0x1865 JUMP JUMPDEST PUSH2 0x198B DUP5 PUSH2 0x1877 JUMP JUMPDEST DUP2 ADD PUSH1 0x20 DUP6 LT ISZERO PUSH2 0x199A JUMPI DUP2 SWAP1 POP JUMPDEST PUSH2 0x19AE PUSH2 0x19A6 DUP6 PUSH2 0x1877 JUMP JUMPDEST DUP4 ADD DUP3 PUSH2 0x194E JUMP JUMPDEST POP POP JUMPDEST POP POP POP JUMP JUMPDEST PUSH0 DUP3 DUP3 SHR SWAP1 POP SWAP3 SWAP2 POP POP JUMP JUMPDEST PUSH0 PUSH2 0x19D1 PUSH0 NOT DUP5 PUSH1 0x8 MUL PUSH2 0x19B6 JUMP JUMPDEST NOT DUP1 DUP4 AND SWAP2 POP POP SWAP3 SWAP2 POP POP JUMP JUMPDEST PUSH0 PUSH2 0x19E9 DUP4 DUP4 PUSH2 0x19C2 JUMP JUMPDEST SWAP2 POP DUP3 PUSH1 0x2 MUL DUP3 OR SWAP1 POP SWAP3 SWAP2 POP POP JUMP JUMPDEST PUSH2 0x1A02 DUP3 PUSH2 0x120A JUMP JUMPDEST PUSH8 0xFFFFFFFFFFFFFFFF DUP2 GT ISZERO PUSH2 0x1A1B JUMPI PUSH2 0x1A1A PUSH2 0x15A0 JUMP JUMPDEST JUMPDEST PUSH2 0x1A25 DUP3 SLOAD PUSH2 0x1765 JUMP JUMPDEST PUSH2 0x1A30 DUP3 DUP3 DUP6 PUSH2 0x1970 JUMP JUMPDEST PUSH0 PUSH1 0x20 SWAP1 POP PUSH1 0x1F DUP4 GT PUSH1 0x1 DUP2 EQ PUSH2 0x1A61 JUMPI PUSH0 DUP5 ISZERO PUSH2 0x1A4F JUMPI DUP3 DUP8 ADD MLOAD SWAP1 POP JUMPDEST PUSH2 0x1A59 DUP6 DUP3 PUSH2 0x19DE JUMP JUMPDEST DUP7 SSTORE POP PUSH2 0x1AC0 JUMP JUMPDEST PUSH1 0x1F NOT DUP5 AND PUSH2 0x1A6F DUP7 PUSH2 0x1865 JUMP JUMPDEST PUSH0 JUMPDEST DUP3 DUP2 LT ISZERO PUSH2 0x1A96 JUMPI DUP5 DUP10 ADD MLOAD DUP3 SSTORE PUSH1 0x1 DUP3 ADD SWAP2 POP PUSH1 0x20 DUP6 ADD SWAP5 POP PUSH1 0x20 DUP2 ADD SWAP1 POP PUSH2 0x1A71 JUMP JUMPDEST DUP7 DUP4 LT ISZERO PUSH2 0x1AB3 JUMPI DUP5 DUP10 ADD MLOAD PUSH2 0x1AAF PUSH1 0x1F DUP10 AND DUP3 PUSH2 0x19C2 JUMP JUMPDEST DUP4 SSTORE POP JUMPDEST PUSH1 0x1 PUSH1 0x2 DUP9 MUL ADD DUP9 SSTORE POP POP POP JUMPDEST POP POP POP POP POP POP JUMP JUMPDEST PUSH32 0x5573657220446F6573204E6F742045786973742E000000000000000000000000 PUSH0 DUP3 ADD MSTORE POP JUMP JUMPDEST PUSH0 PUSH2 0x1AFC PUSH1 0x14 DUP4 PUSH2 0x14F1 JUMP JUMPDEST SWAP2 POP PUSH2 0x1B07 DUP3 PUSH2 0x1AC8 JUMP JUMPDEST PUSH1 0x20 DUP3 ADD SWAP1 POP SWAP2 SWAP1 POP JUMP JUMPDEST PUSH0 PUSH1 0x20 DUP3 ADD SWAP1 POP DUP2 DUP2 SUB PUSH0 DUP4 ADD MSTORE PUSH2 0x1B29 DUP2 PUSH2 0x1AF0 JUMP JUMPDEST SWAP1 POP SWAP2 SWAP1 POP JUMP JUMPDEST PUSH32 0x4E487B7100000000000000000000000000000000000000000000000000000000 PUSH0 MSTORE PUSH1 0x11 PUSH1 0x4 MSTORE PUSH1 0x24 PUSH0 REVERT JUMPDEST PUSH0 PUSH2 0x1B67 DUP3 PUSH2 0x114A JUMP JUMPDEST SWAP2 POP PUSH2 0x1B72 DUP4 PUSH2 0x114A JUMP JUMPDEST SWAP3 POP DUP3 DUP3 ADD SWAP1 POP DUP1 DUP3 GT ISZERO PUSH2 0x1B8A JUMPI PUSH2 0x1B89 PUSH2 0x1B30 JUMP JUMPDEST JUMPDEST SWAP3 SWAP2 POP POP JUMP JUMPDEST PUSH0 PUSH2 0x1B9A DUP3 PUSH2 0x114A JUMP JUMPDEST SWAP2 POP PUSH2 0x1BA5 DUP4 PUSH2 0x114A JUMP JUMPDEST SWAP3 POP DUP3 DUP3 MUL PUSH2 0x1BB3 DUP2 PUSH2 0x114A JUMP JUMPDEST SWAP2 POP DUP3 DUP3 DIV DUP5 EQ DUP4 ISZERO OR PUSH2 0x1BCA JUMPI PUSH2 0x1BC9 PUSH2 0x1B30 JUMP JUMPDEST JUMPDEST POP SWAP3 SWAP2 POP POP JUMP INVALID LOG2 PUSH5 0x6970667358 0x22 SLT KECCAK256 0xB8 0xC PUSH22 0x3F0FF349A9BFBFE112D308E7061F1904C94ABC85C1AC LOG3 0xBD 0xAA SWAP13 PUSH20 0x479D64736F6C6343000816003300000000000000 "
		},
		"gasEstimates": {
			"creation": {
				"codeDepositCost": "1435000",
				"executionCost": "infinite",
				"totalCost": "infinite"
			},
			"external": {
				"checkWaterUsage()": "4832",
				"createrUserAccount()": "infinite",
				"raterPerLiter()": "2425",
				"recordWaterUsage(uint256)": "infinite",
				"updateUserAccountBalance(uint256)": "24913",
				"updateUserPhysicalAddress(string)": "infinite",
				"updateUserWalletAddress(address)": "27090",
				"users(address)": "infinite",
				"viewActiveBillings()": "infinite",
				"waterSystem()": "infinite"
			},
			"internal": {
				"AddressListings()": "infinite",
				"verifyUserAddress(address)": "infinite"
			}
		},
		"methodIdentifiers": {
			"checkWaterUsage()": "48b14e2e",
			"createrUserAccount()": "44d3d050",
			"raterPerLiter()": "7feebc31",
			"recordWaterUsage(uint256)": "6fcbe524",
			"updateUserAccountBalance(uint256)": "9aac8b59",
			"updateUserPhysicalAddress(string)": "efface4d",
			"updateUserWalletAddress(address)": "98ec0dff",
			"users(address)": "a87430ba",
			"viewActiveBillings()": "00442baf",
			"waterSystem()": "63e8b9de"
		}
	},
	"abi": [
		{
			"inputs": [
				{
					"internalType": "address",
					"name": "_waterSystemAddress",
					"type": "address"
				}
			],
			"stateMutability": "nonpayable",
			"type": "constructor"
		},
		{
			"inputs": [],
			"name": "checkWaterUsage",
			"outputs": [
				{
					"internalType": "uint256",
					"name": "",
					"type": "uint256"
				}
			],
			"stateMutability": "view",
			"type": "function"
		},
		{
			"inputs": [],
			"name": "createrUserAccount",
			"outputs": [],
			"stateMutability": "nonpayable",
			"type": "function"
		},
		{
			"inputs": [],
			"name": "raterPerLiter",
			"outputs": [
				{
					"internalType": "uint256",
					"name": "",
					"type": "uint256"
				}
			],
			"stateMutability": "view",
			"type": "function"
		},
		{
			"inputs": [
				{
					"internalType": "uint256",
					"name": "_usage",
					"type": "uint256"
				}
			],
			"name": "recordWaterUsage",
			"outputs": [],
			"stateMutability": "nonpayable",
			"type": "function"
		},
		{
			"inputs": [
				{
					"internalType": "uint256",
					"name": "_newBalance",
					"type": "uint256"
				}
			],
			"name": "updateUserAccountBalance",
			"outputs": [],
			"stateMutability": "nonpayable",
			"type": "function"
		},
		{
			"inputs": [
				{
					"internalType": "string",
					"name": "_newPhysAddress",
					"type": "string"
				}
			],
			"name": "updateUserPhysicalAddress",
			"outputs": [],
			"stateMutability": "nonpayable",
			"type": "function"
		},
		{
			"inputs": [
				{
					"internalType": "address",
					"name": "_newWalletAddress",
					"type": "address"
				}
			],
			"name": "updateUserWalletAddress",
			"outputs": [],
			"stateMutability": "nonpayable",
			"type": "function"
		},
		{
			"inputs": [
				{
					"internalType": "address",
					"name": "",
					"type": "address"
				}
			],
			"name": "users",
			"outputs": [
				{
					"internalType": "address",
					"name": "walletAddress",
					"type": "address"
				},
				{
					"internalType": "string",
					"name": "physAddress",
					"type": "string"
				},
				{
					"internalType": "uint256",
					"name": "balance",
					"type": "uint256"
				},
				{
					"internalType": "string",
					"name": "userName",
					"type": "string"
				},
				{
					"internalType": "uint256",
					"name": "totalWaterUsage",
					"type": "uint256"
				}
			],
			"stateMutability": "view",
			"type": "function"
		},
		{
			"inputs": [],
			"name": "viewActiveBillings",
			"outputs": [
				{
					"internalType": "uint256[]",
					"name": "",
					"type": "uint256[]"
				},
				{
					"internalType": "string[]",
					"name": "",
					"type": "string[]"
				}
			],
			"stateMutability": "view",
			"type": "function"
		},
		{
			"inputs": [],
			"name": "waterSystem",
			"outputs": [
				{
					"internalType": "contract WaterSystem",
					"name": "",
					"type": "address"
				}
			],
			"stateMutability": "view",
			"type": "function"
		}
	]
}